S00F000064635F636F64652E7372656354
S11300000C942A000C9434000C9434000C943400A6
S11300100C9434000C9434000C9434000C9434008C
S11300200C9434000C9434000C9434000C9434007C
S11300300C9434000C9434000C9434000C9434006C
S11300400C9434000C9434000C9434000C9434005C
S11300500C94340011241FBECFE5D8E0DEBFCDBF21
S11300600E9436000C946D000C94000087B38860E5
S113007087BB87B3806187BB88B3886088BB2FEB5D
S113008087E299E0215080409040E1F700C00000F1
S113009088B3877F88BB2FEB87E299E021508040AB
S11300A09040E1F700C0000088B3806188BB2FEB6B
S11300B087E299E0215080409040E1F700C00000C1
S11300C088B38F7E88BB2FEB87E299E02150804074
S11100D09040E1F700C00000CFCFF894FFCFBE
S9030000FC
