S00D00003737355F322E73726563E3
S11300000C942A000C9434000C9434000C943400A6
S11300100C9434000C9434000C9434000C9434008C
S11300200C9434000C9434000C9434000C9434007C
S11300300C9434000C9434000C9434000C9434006C
S11300400C9434000C9434000C9434000C9434005C
S11300500C94340011241FBECFE5D8E0DEBFCDBF21
S11300600E9436000C946D000C94000087B38062EB
S113007087BB87B3806487BB88B3806288BB2FEB60
S113008087E299E0215080409040E1F700C00000F1
S113009088B38F7D88BB2FEB87E299E021508040A5
S11300A09040E1F700C0000088B3806488BB2FEB68
S11300B087E299E0215080409040E1F700C00000C1
S11300C088B38F7B88BB2FEB87E299E02150804077
S11100D09040E1F700C00000CFCFF894FFCFBE
S9030000FC
