:100000000C942A000C9447000C9447000C94470071
:100010000C9447000C9447000C9447000C94470044
:100020000C9447000C9447000C9447000C948004F7
:100030000C9447000C9447000C9447000C94470024
:100040000C9447000C9447000C9447000C94470014
:100050000C94470011241FBECFE5D8E0DEBFCDBF12
:1000600011E0A0E6B0E0E2EBF4E102C005900D92F1
:10007000A03EB107D9F721E0A0EEB1E001C01D928A
:10008000A73EB207E1F70E94A2050C94570A0C9410
:10009000000095B39F70282F207F922B95BB95B3BE
:1000A0009B7F95BB95B3986095BB35E03A95F1F78A
:1000B000000095B3977F95BBEFE1F3E03197F1F73F
:1000C00000C0000025B3F0E18F9FC0011124922FE2
:1000D0009F70892B85BB85B3886085BB35E03A95D9
:1000E000F1F7000085B3877F85BB8FE39FE1019720
:1000F000F1F700C00000089595B39F70282F207F6E
:10010000922B95BB95B3946095BB95B3986095BBC6
:1001100035E03A95F1F7000095B3977F95BBEFE195
:10012000F3E03197F1F700C0000025B3F0E18F9FB5
:10013000C0011124922F9F70892B85BB85B38860E5
:1001400085BB35E03A95F1F7000085B3877F85BB25
:100150008FE39FE10197F1F700C000000895CF936E
:10016000DF93EC0103C021960E947C0088818111FD
:10017000FACFDF91CF910895823029F4862F806CD9
:100180000E9449000895862F80680E9449000895C2
:100190000F931F93CF93DF938B0190E00896880F06
:1001A000880F880F0E944900C0E0D0E007C0F80126
:1001B000EC0FFD1F80810E947C002196C830D10584
:1001C000B4F380E80E944900DF91CF911F910F9115
:1001D00008950F931F93CF93DF93CDB7DEB7279783
:1001E0000FB6F894DEBF0FBECDBF80E80E94490075
:1001F00085E790E00E94AF002FE784ED90E021506A
:1002000080409040E1F700C0000000E010E01EC018
:1002100087E0E0E6F0E0DE01119601900D928A950C
:10022000E1F7BE016F5F7F4F82E00E94C800602F40
:1002300082E00E94BC0082E00E947C008FE99FE087
:100240000197F1F700C000000F5F1F4F003111054B
:10025000FCF28FE99FE00197F1F700C0000081E018
:100260000E94490027960FB6F894DEBF0FBECDBF9F
:10027000DF91CF911F910F9108958FEF84BB8FE590
:100280009AEE0197F1F700C0000082E30E94490056
:1002900088E20E94490080E80E94490080EC0E94A8
:1002A00049008EE00E94490081E00E9449008CE0F4
:1002B0000E9449000E94E9000895EF92FF920F9377
:1002C0001F93CF93DF93CDB7DEB764970FB6F89443
:1002D000DEBF0FBECDBF7C018B0187E0E7E6F0E01B
:1002E000DE01119601900D928A95E1F787E0EEE626
:1002F000F0E0DE01189601900D928A95E1F74AE050
:10030000BE01615F7F4FC7010E94220A4AE0BE0121
:100310006E5E7F4FC8010E94220A8FE39CE901971D
:10032000F1F700C0000081E00E9449008FE99FE0E2
:100330000197F1F700C00000BE016F5F7F4F80E0C2
:100340000E94C80060E082E00E94BC0080E00E9441
:100350007C0062E080E00E94BC0086E890E00E94A1
:10036000AF00EA94EF2849F46AE080E00E94BC0004
:100370008EE890E00E94AF0008C06AE080E00E9432
:10038000BC008EEB91E00E94AF0062E082E00E9430
:10039000BC0085E990E00E94AF000130110549F4EE
:1003A0006AE082E00E94BC008EE890E00E94AF000C
:1003B00008C06AE082E00E94BC008EEB91E00E94DF
:1003C000AF008CE00E944900BE01685F7F4F81E072
:1003D0000E94C8006FE082E00E94BC0081E00E94A1
:1003E0007C0064960FB6F894DEBF0FBECDBFDF91E0
:1003F000CF911F910F91FF90EF9008950F931F934E
:10040000CF93DF93CDB7DEB762970FB6F894DEBF18
:100410000FBECDBF8C0187E0E7E6F0E0DE0111966C
:1004200001900D928A95E1F787E0EEE6F0E0DE01BB
:10043000189601900D928A95E1F74AE0BE01615F3E
:100440007F4FC8010E94220A8FE39CE90197F1F7D0
:1004500000C0000081E00E9449008FE99FE0019701
:10046000F1F700C00000BE016F5F7F4F80E00E9487
:10047000C80060E082E00E94BC0080E00E947C0036
:1004800063E080E00E94BC008EE990E00E94AF0033
:100490000130110549F462E082E00E94BC008FEA5D
:1004A00090E00E94AF0008C062E082E00E94BC00C1
:1004B0008CEB90E00E94AF008CE00E944900BE01EE
:1004C000685F7F4F81E00E94C8006FE082E00E9479
:1004D000BC0081E00E947C0062960FB6F894DEBFFB
:1004E0000FBECDBFDF91CF911F910F9108950F9354
:1004F0001F93CF93DF93CDB7DEB72F970FB6F89446
:10050000DEBF0FBECDBF8B0127E0E7E6F0E0DE01E6
:10051000119601900D922A95E1F727E0EEE6F0E0C2
:10052000DE01189601900D922A95E1F74AE0BE018E
:10053000615F7F4F0E94220A8FE39CE90197F1F7E8
:1005400000C0000081E00E9449008FE99FE0019710
:10055000F1F700C00000BE016F5F7F4F80E00E9496
:10056000C80060E082E00E94BC0080E00E947C0045
:1005700062E080E00E94BC0089EC90E00E94AF0045
:100580006BE080E00E94BC00CE010F960E94AF009D
:100590006EE080E00E94BC0083ED90E00E94AF001E
:1005A00062E082E00E94BC0086ED90E00E94AF0015
:1005B0000130110549F469E082E00E94BC008EE13F
:1005C00091E00E94AF0013C0012B49F469E082E082
:1005D0000E94BC0085E291E00E94AF0008C069E083
:1005E00082E00E94BC008DED90E00E94AF008CE0A4
:1005F0000E944900BE01685F7F4F81E00E94C800F1
:100600006FE082E00E94BC0081E00E947C002F9697
:100610000FB6F894DEBF0FBECDBFDF91CF911F9113
:100620000F9108958FE39CE90197F1F700C0000056
:1006300081E00E9449008FE99FE00197F1F700C037
:10064000000060E080E00E94BC0081EE90E00E942B
:10065000AF0060E082E00E94BC0088EE90E00E9463
:10066000AF00089591B321E030E002C0220F331FA4
:100670008A95E2F7292B21BB089542B321E030E0AF
:10068000B90102C0660F771F8A95E2F7CB01462BAE
:1006900042BB70E57A95F1F792B38095892382BBCE
:1006A000089540E050E0BA010EC020B330E0082EBB
:1006B00002C0359527950A94E2F720FD0BC04F5FE5
:1006C0005F4F6F4F7F4F403C27E2520729E06207A0
:1006D000710558F3403C574269407105C1F11FBC98
:1006E00092E09EBD1DBC1CBC40E050E0BA0113C0AE
:1006F00020B330E0082E02C0359527950A94E2F722
:1007000020FF10C02CB53DB521363A4E58F44F5F4E
:100710005F4F6F4F7F4F403C27E2520729E062074F
:10072000710530F3403C57426940710599F08CB532
:100730009DB5A0E0B0E01EBC81362AEE9207A1056F
:10074000B10558F4B695A7959795879508958FEFBD
:100750009FEF08958EEF9FEF08958EEF9FEF08951E
:100760000F931F93CF93DF932FEF81EE94E02150EF
:1007700080409040E1F700C0000080E00E9432031A
:1007800080E00E943D0381E00E9451038C0182E0E1
:100790000E94320382E00E943D0383E00E945103E5
:1007A000EC010F3F2FEF120721F0CF3F8FEFD8075B
:1007B00041F480E80E94490086EA91E00E94AF007F
:1007C00041C00C171D0701F4C017D107F0F4B801A0
:1007D00080E090E00E94270926E933E44BE05DE3E6
:1007E0000E94B50920E030E040E05FE30E94B509D7
:1007F00020E030E040E85FE30E9485080E94F808AE
:100800007093E2016093E1011DC0BE0180E090E0C1
:100810000E94270926E933E44BE05DE30E94B50915
:1008200020E030E040E05FE30E94B50920E030E0E6
:1008300040E85FE30E9485080E94F8087093E20197
:100840006093E1018091E1019091E201DF91CF910C
:100850001F910F910895BC0180E090E00E9427094C
:1008600020E030E048EC5DE30E94B5090E94F10809
:10087000665F7F4F8091E00190E08617970718F43C
:1008800085B3816085BB8091E00190E08617970772
:1008900018F085B38E7F85BB8091E001843610F01F
:1008A0001092E001089585B3816085BB8BB38D7F85
:1008B0008BBB82E083BF81E088BF89BF89BF78940A
:1008C00086B1806886B987B1816087B986B1806456
:1008D00086B986B124B185B190E0982F8827820F20
:1008E000911D0E942B042FEF8BE792E9215080404D
:1008F0009040E1F700C0000085B38E7F85BB08956E
:100900001F920F920FB60F9211248F938BEF82BF1D
:100910008091E0018F5F8093E00181E088BF8F913B
:100920000F900FBE0F901F90189587B3886087BBFC
:1009300087B3806187BB80E090E01FC028B3286048
:1009400028BB2FEF37EA41E6215030404040E1F725
:1009500000C0000028B3277F28BB28B3206128BB34
:100960002FEF37EA41E6215030404040E1F700C028
:10097000000028B32F7E28BB019682309105F4F247
:10098000089587B3806287BB87B3806487BB80E0AC
:1009900090E01FC028B3206228BB2FEF37EA41E662
:1009A000215030404040E1F700C0000028B32F7DC7
:1009B00028BB28B3206428BB2FEF37EA41E621503B
:1009C00030404040E1F700C0000028B32F7B28BB37
:1009D000019682309105F4F2089587B3897F87BB31
:1009E000B1991DC081E00E94490080E80E94490041
:1009F00085EF90E00E94AF0080EC0E9449008EE1FC
:100A000091E00E94AF002FEF85EA9EE021508040E8
:100A10009040E1F700C0000080E090E0089581E0A0
:100A200090E0089587B3897F87BBB2991DC081E0AC
:100A30000E94490080E80E94490085EF90E00E94F2
:100A4000AF0080EC0E94490085E291E00E94AF0077
:100A50002FEF85EA9EE0215080409040E1F700C0F2
:100A6000000080E090E0089581E090E00895CF9349
:100A7000DF9387B38E7F87BB86B3282F217030E04A
:100A800080FD03C0C0E0D0E002C0C1E0D0E0213072
:100A9000310509F440C081E00E94490061E081E035
:100AA0000E94BC0086E091E00E94AF0061E082E01D
:100AB0000E94BC0085E191E00E94AF0028C069E07F
:100AC00082E00E94BC008DE191E00E94AF00C1E095
:100AD000D0E01DC089B3803859F469E082E00E94FB
:100AE000BC0084E291E00E94AF00C0E0D0E00FC003
:100AF00089B3803161F40E9412032FEF81EE94E0FC
:100B0000215080409040E1F700C0000004C089B34C
:100B1000803401F7D4CFCE01DF91CF91089587B310
:100B2000806887BB88B3806888BB2FEF80E792E03E
:100B3000215080409040E1F700C0000088B38F77DB
:100B400088BB08958F929F92AF92BF92CF92DF920F
:100B5000EF92FF920F931F93CF93DF938AB38F701F
:100B60008ABB8AB381608ABB84B3826084BB8AB348
:100B700084608ABB8AB388608ABB81B3806F81BB83
:100B80000E943D010E94B0035C010E94ED046C01D3
:100B90000E9412057C010E9437058C0181E00E94B1
:100BA000490080E80E9449008BE291E00E94AF007A
:100BB00080EC0E9449008AE391E00E94AF00882403
:100BC0008394912CC1E0D0E089B3803109F02AC22E
:100BD0000E94ED046C010E9412057C010E94370501
:100BE0008C012FEF85EA9EE0215080409040E1F794
:100BF00000C000000130110509F00AC181E00E9427
:100C0000490061E081E00E94BC0085E491E00E941F
:100C1000AF0061E082E00E94BC0081E591E00E94AB
:100C2000AF002FEF85EA9EE0215080409040E1F731
:100C300000C0000021E0C216D10409F0CAC081E062
:100C400088169104A9F481E00E94490061E081E0E6
:100C50000E94BC008AE591E00E94AF0061E082E062
:100C60000E94BC0085E691E00E94AF000E94530400
:100C700081E00E94490080E80E9449008FE691E0EF
:100C80000E94AF0080EC0E94490080E891E00E9441
:100C9000AF00C5010197049728F582B3806182BB3C
:100CA0008BB381608BBB9FEF20E889E2915020409D
:100CB0008040E1F700C000008BB38E7F8BBB82B316
:100CC0008F7E82BB82B3806282BB9FEF20E889E285
:100CD000915020408040E1F700C0000082B38F7D3A
:100CE00082BB5FC0C5010597059728F58BB381606E
:100CF0008BBB82B3806182BB9FEF2EE984E291506F
:100D000020408040E1F700C000008BB38E7F8BBB9A
:100D100082B38F7E82BB82B3806282BB9FEF2EE95B
:100D200084E2915020408040E1F700C0000082B38F
:100D30008F7D82BB36C0C5010A97059728F58BB316
:100D400081608BBB82B3806182BB9FEF2CEB8FE114
:100D5000915020408040E1F700C000008BB38E7FAF
:100D60008BBB82B38F7E82BB82B3806282BB9FEFDC
:100D70002CEB8FE1915020408040E1F700C0000053
:100D800082B38F7D82BB0DC081E00E94490080E864
:100D90000E9449008AE891E00E94AF000E948F05FE
:100DA000A4C10E9495040E94530481E00E9449005E
:100DB00080E80E94490080E891E00E94AF0080EC4A
:100DC0000E9449008AE991E00E94AF000E948F05CD
:100DD000FBCE81E00E94490061E081E00E94BC00FE
:100DE00088EA91E00E94AF0061E082E00E94BC00CE
:100DF00088EB91E00E94AF000E948F059FEF25EAEB
:100E00008EE0915020408040E1F700C00000DCCE31
:100E100081E00E94490061E081E00E94BC0082EC18
:100E200091E00E94AF0061E082E00E94BC0081E599
:100E300091E00E94AF009FEF25EA8EE091502040A4
:100E40008040E1F700C0000091E0E916F10409F0EC
:100E5000CAC021E082169104A9F481E00E944900F1
:100E600061E081E00E94BC008AE591E00E94AF0051
:100E700061E082E00E94BC0085E691E00E94AF0044
:100E80000E94530481E00E94490080E80E944900CA
:100E90008FE691E00E94AF0080EC0E94490080E85C
:100EA00091E00E94AF00C5010197049728F58BB32C
:100EB00084608BBB82B3806482BB8FEF90E829E2B1
:100EC000815090402040E1F700C000008BB38B7F41
:100ED0008BBB82B38F7B82BB82B3806882BB8FEF78
:100EE00090E829E2815090402040E1F700C00000E6
:100EF00082B38F7782BB5FC0C5010597059728F540
:100F00008BB384608BBB82B3806482BB8FEF9EE91E
:100F100024E2815090402040E1F700C000008BB3F4
:100F20008B7F8BBB82B38F7B82BB82B3806882BB9B
:100F30008FEF9EE924E2815090402040E1F700C00D
:100F4000000082B38F7782BB36C0C5010A97059730
:100F500028F58BB384608BBB82B3806482BB8FEF38
:100F60009CEB2FE1815090402040E1F700C0000051
:100F70008BB38B7F8BBB82B38F7B82BB82B380684A
:100F800082BB8FEF9CEB2FE1815090402040E1F736
:100F900000C0000082B38F7782BB0DC081E00E9449
:100FA000490080E80E9449008AE891E00E94AF0071
:100FB0000E948F059AC00E94C1040E94530481E0E0
:100FC0000E94490080E80E94490080E891E00E9468
:100FD000AF0080EC0E9449008AE991E00E94AF00D6
:100FE0000E948F05F1CD81E00E94490061E081E01F
:100FF0000E94BC008FEC91E00E94AF0061E082E0B3
:101000000E94BC0088EB91E00E94AF000E948F0517
:101010008FEF95EA2EE0815090402040E1F700C02C
:101020000000D2CD89B3803209F0CECDC130D105D8
:1010300039F4B801C5010E947702C2E0D0E0C4CD06
:10104000C230D10539F4B701C6010E945D01C3E089
:10105000D0E0BACDC330D10509F0B6CDC4010E94AD
:10106000FE01C0E0D0E03CC089B3803841F481E0AB
:1010700090E00E94FE0188248394912C31C089B3B2
:10108000803439F480E090E00E94FE01812C912CA4
:1010900027C089B38031F9F40E9412038FEF90E7E3
:1010A00022E0815090402040E1F700C0000081E044
:1010B0000E94490080E80E9449008BE291E00E9472
:1010C000AF0080EC0E9449008AE391E00E94AF00EB
:1010D000C1E0D0E005C089B3803211F4C1E0D0E0B6
:1010E000209711F2C1E0D0E06FCD80E090E0DF9179
:1010F000CF911F910F91FF90EF90DF90CF90BF9015
:10110000AF909F908F9008955058BB27AA270E94B8
:101110009C080C947B090E946D0938F00E947409A8
:1011200020F039F49F3F19F426F40C946A090EF468
:10113000E095E7FB0C946409E92F0E948C0958F3B1
:10114000BA17620773078407950720F079F4A6F5AC
:101150000C94AE090EF4E0950B2EBA2FA02D0B01C6
:10116000B90190010C01CA01A0011124FF27591BEC
:1011700099F0593F50F4503E68F11A16F040A22FF2
:10118000232F342F4427585FF3CF46953795279563
:10119000A795F0405395C9F77EF41F16BA0B620B62
:1011A000730B840BBAF09150A1F0FF0FBB1F661FA9
:1011B000771F881FC2F70EC0BA0F621F731F841FEC
:1011C00048F4879577956795B795F7959E3F08F012
:1011D000B0CF9395880F08F09927EE0F97958795D4
:1011E00008950E94F8086894B1110C94AF0908950D
:1011F0000E94940988F09F5798F0B92F9927B7510A
:10120000B0F0E1F0660F771F881F991F1AF0BA95AA
:10121000C9F714C0B13091F00E94AE09B1E0089551
:101220000C94AE09672F782F8827B85F39F0B93F43
:10123000CCF3869577956795B395D9F73EF490955D
:101240008095709561957F4F8F4F9F4F0895E894DB
:1012500009C097FB3EF490958095709561957F4FFE
:101260008F4F9F4F9923A9F0F92F96E9BB279395AC
:10127000F695879577956795B795F111F8CFFAF4BC
:10128000BB0F11F460FF1BC06F5F7F4F8F4F9F4FED
:1012900016C0882311F096E911C0772321F09EE84B
:1012A000872F762F05C0662371F096E8862F70E0B1
:1012B00060E02AF09A95660F771F881FDAF7880F8B
:1012C0009695879597F9089597F99F6780E870E05C
:1012D00060E008959FEF80EC089500240A941616AC
:1012E000170618060906089500240A941216130614
:1012F000140605060895092E0394000C11F48823A2
:1013000052F0BB0F40F4BF2B11F460FF04C06F5FBD
:101310007F4F8F4F9F4F089557FD9058440F551F93
:1013200059F05F3F71F04795880F97FB991F61F067
:101330009F3F79F087950895121613061406551FDE
:10134000F2CF4695F1DF08C0161617061806991F4A
:10135000F1CF86957105610508940895E894BB273F
:1013600066277727CB0197F908950E94C8090C9446
:101370007B090E946D0938F00E94740920F09523C2
:1013800011F00C9464090C946A0911240C94AF09AF
:101390000E948C0970F3959FC1F3950F50E0551F83
:1013A000629FF001729FBB27F00DB11D639FAA27BA
:1013B000F00DB11DAA1F649F6627B00DA11D661F09
:1013C000829F2227B00DA11D621F739FB00DA11D2A
:1013D000621F839FA00D611D221F749F3327A00DE4
:1013E000611D231F849F600D211D822F762F6A2F80
:1013F00011249F5750409AF0F1F088234AF0EE0FE5
:10140000FF1FBB1F661F771F881F91505040A9F711
:101410009E3F510580F00C9464090C94AF095F3F26
:10142000E4F3983ED4F3869577956795B795F7954D
:10143000E7959F5FC1F7FE2B880F911D96958795C5
:1014400097F90895BB274A3031F4992322F4BDE27D
:10145000909581959F4F0C942E0ABB27FB01552731
:10146000AA27880F991FAA1FA41710F0A41B839501
:101470005051B9F7A05DAA3308F0A95DA193009778
:1014800079F7B111B1931192CB010C94470ADC01A9
:10149000FC01672F71917723E1F7329704C07C91AB
:1014A0006D9370836291AE17BF07C8F30895F894E7
:0214B000FFCF6C
:1014B2001F1F1F1F1F1F1F02060E1E0E0602080CF3
:1014C2000E0F0E0C08202020202057656C636F6DD4
:1014D200652020202000426C61636B203A0048693D
:1014E20067682020004F74686572203A20004472B9
:1014F200792D46616E206F6E2F6F6666203A00412D
:1015020063746976617465642020200044656163B8
:1015120074697661746564200044697374616E63F2
:10152200653A00636D00436F6C6F723A004E6F74E0
:101532000055706461746500537563636573736607
:10154200756C6C7900506F6C697368206C65766598
:101552006C206C6F770043686F6F736520636F72E6
:101562007265637400636F6C6F75723A0020426C2F
:1015720061636B00204F7468657200312E205175D3
:1015820069636B20535441525400322E20536574C8
:1015920074696E6700426C61636B20436F6C6F729B
:1015A200004465746563746564004472792D466114
:1015B2006E20697300416374697661746564004DDD
:1015C200616368696E6520537461747573203A00B3
:1015D200506F6C697368696E670053686F6520733A
:1015E200697A65204572726F7200436F6D706C6527
:1015F2007465642021212100426C61636B20506F6D
:101602006C697368206973006C6576656C204C6F39
:1016120077004F7468657220436F6C6F7572004F6C
:101622007468657220506F6C69736820697300007A
:00000001FF
