:100000000C942A000C943F000C943F000C943F0089
:100010000C943F000C943F000C943F000C943F0064
:100020000C943F000C943F000C943F000C943F0054
:100030000C943F000C943F000C943F000C943F0044
:100040000C943F000C943F000C943F000C943F0034
:100050000C943F0011241FBECFE5D8E0DEBFCDBF1A
:1000600011E0A0E6B0E0E2E9F8E002C005900D92F0
:10007000A230B107D9F70E94E0010C9447040C9418
:10008000000095B39F70282F207F922B95BB95B3CE
:100090009B7F95BB95B3986095BB35E03A95F1F79A
:1000A000000095B3977F95BBEFE1F3E03197F1F74F
:1000B00000C0000025B3F0E18F9FC0011124922FF2
:1000C0009F70892B85BB85B3886085BB35E03A95E9
:1000D000F1F7000085B3877F85BB8FE39FE1019730
:1000E000F1F700C00000089581E00E9441008FE315
:1000F0009FE10197F1F700C0000080E80E944100F5
:10010000089595B39F70282F207F922B95BB95B3B0
:10011000946095BB95B3986095BB35E03A95F1F73F
:10012000000095B3977F95BBEFE1F3E03197F1F7CE
:1001300000C0000025B3F0E18F9FC0011124922F71
:100140009F70892B85BB85B3886085BB35E03A9568
:10015000F1F7000085B3877F85BB8FE39FE10197AF
:10016000F1F700C000000895CF93DF93EC0103C0C6
:1001700021960E94810088818111FACFDF91CF9171
:100180000895823029F4862F806C0E9441000895E2
:10019000862F80680E94410008950F931F93CF938C
:1001A000DF938B0190E00896880F880F880F0E94DC
:1001B0004100C0E0D0E007C0F801EC0FFD1F8081D6
:1001C0000E9481002196C830D105B4F380E80E94D6
:1001D0004100DF91CF911F910F9108950F931F93CD
:1001E000CF93DF93CDB7DEB727970FB6F894DEBF76
:1001F0000FBECDBF80E80E94410085E790E00E94DD
:10020000B4002FE784ED90E0215080409040E1F76A
:1002100000C0000000E010E01EC087E0E0E6F0E073
:10022000DE01119601900D928A95E1F7BE016F5F94
:100230007F4F82E00E94CD00602F82E00E94C100CB
:1002400082E00E9481008FE99FE00197F1F700C0F2
:1002500000000F5F1F4F00311105FCF28FE99FE096
:100260000197F1F700C0000081E00E94410027964D
:100270000FB6F894DEBF0FBECDBFDF91CF911F91B7
:100280000F9108958FEF84BB8FE59AEE0197F1F7F8
:1002900000C0000082E30E94410088E20E94410009
:1002A00080E80E94410080EC0E9441008EE00E94A4
:1002B000410081E00E9441008CE00E9441000E94C8
:1002C000EE00089591B321E030E002C0220F331F09
:1002D0008A95E2F7292B21BB089542B321E030E053
:1002E000B90102C0660F771F8A95E2F7CB01462B52
:1002F00042BB70E57A95F1F792B38095892382BB72
:10030000089540E050E0BA010EC020B330E0082E5E
:1003100002C0359527950A94E2F720FD0BC04F5F88
:100320005F4F6F4F7F4F403C27E2520729E0620743
:10033000710558F3403C574269407105C1F11FBC3B
:1003400092E09EBD1DBC1CBC40E050E0BA0113C051
:1003500020B330E0082E02C0359527950A94E2F7C5
:1003600020FF10C02CB53DB521363A4E58F44F5FF2
:100370005F4F6F4F7F4F403C27E2520729E06207F3
:10038000710530F3403C57426940710599F08CB5D6
:100390009DB5A0E0B0E01EBC81362AEE9207A10513
:1003A000B10558F4B695A7959795879508958FEF61
:1003B0009FEF08958EEF9FEF08958EEF9FEF0895C2
:1003C000CF93DF9300D000D0CDB7DEB70E944201BB
:1003D0002FEF81EE94E0215080409040E1F700C083
:1003E0000000E12CF12C80E00E94620180E00E947C
:1003F0006D0181E00E9481018C0182E00E94620116
:1004000082E00E946D0183E00E9481010F3F2FEF87
:10041000120721F08F3F2FEF920741F480E80E94EE
:10042000410087EF90E00E94B400DDCF8017910774
:10043000E8F4B801681B790B80E090E00E94170394
:1004400026E933E44BE05DE30E94A50320E030E0C1
:1004500040E05FE30E94A50320E030E040E85FE376
:100460000E9475020E94E1028B011CC0BC01601B4E
:10047000710B80E090E00E94170326E933E44BE023
:100480005DE30E94A50320E030E040E05FE30E94CE
:10049000A50320E030E040E85FE30E9475020E947F
:1004A000E1028B01E016F106A9F00E94740080E8D9
:1004B0000E9441004AE0BE016F5F7F4FC8010E9469
:1004C0001204CE0101960E94B4008EEF90E00E94CB
:1004D000B40078018FEF96E721E0815090402040F2
:1004E000E1F700C000007FCF5058BB27AA270E9429
:1004F0008C020C946B030E945D0338F00E9464032D
:1005000020F039F49F3F19F426F40C945A030EF4AA
:10051000E095E7FB0C945403E92F0E947C0358F309
:10052000BA17620773078407950720F079F4A6F5D8
:100530000C949E030EF4E0950B2EBA2FA02D0B0108
:10054000B90190010C01CA01A0011124FF27591B18
:1005500099F0593F50F4503E68F11A16F040A22F1E
:10056000232F342F4427585FF3CF4695379527958F
:10057000A795F0405395C9F77EF41F16BA0B620B8E
:10058000730B840BBAF09150A1F0FF0FBB1F661FD5
:10059000771F881FC2F70EC0BA0F621F731F841F18
:1005A00048F4879577956795B795F7959E3F08F03E
:1005B000B0CF9395880F08F09927EE0F9795879500
:1005C00008950E94E8026894B1110C949F03089565
:1005D0000E94840388F09F5798F0B92F9927B7514C
:1005E000B0F0E1F0660F771F881F991F1AF0BA95D7
:1005F000C9F714C0B13091F00E949E03B1E0089594
:100600000C949E03672F782F8827B85F39F0B93F85
:10061000CCF3869577956795B395D9F73EF4909589
:100620008095709561957F4F8F4F9F4F0895E89407
:1006300009C097FB3EF490958095709561957F4F2A
:100640008F4F9F4F9923A9F0F92F96E9BB279395D8
:10065000F695879577956795B795F111F8CFFAF4E8
:10066000BB0F11F460FF1BC06F5F7F4F8F4F9F4F19
:1006700016C0882311F096E911C0772321F09EE877
:10068000872F762F05C0662371F096E8862F70E0DD
:1006900060E02AF09A95660F771F881FDAF7880FB7
:1006A0009695879597F9089597F99F6780E870E088
:1006B00060E008959FEF80EC089500240A941616D8
:1006C000170618060906089500240A941216130640
:1006D000140605060895092E0394000C11F48823CE
:1006E00052F0BB0F40F4BF2B11F460FF04C06F5FEA
:1006F0007F4F8F4F9F4F089557FD9058440F551FC0
:1007000059F05F3F71F04795880F97FB991F61F093
:100710009F3F79F087950895121613061406551F0A
:10072000F2CF4695F1DF08C0161617061806991F76
:10073000F1CF86957105610508940895E894BB276B
:1007400066277727CB0197F908950E94B8030C9488
:100750006B030E945D0338F00E94640320F0952330
:1007600011F00C9454030C945A0311240C949F031D
:100770000E947C0370F3959FC1F3950F50E0551FC5
:10078000629FF001729FBB27F00DB11D639FAA27E6
:10079000F00DB11DAA1F649F6627B00DA11D661F35
:1007A000829F2227B00DA11D621F739FB00DA11D56
:1007B000621F839FA00D611D221F749F3327A00D10
:1007C000611D231F849F600D211D822F762F6A2FAC
:1007D00011249F5750409AF0F1F088234AF0EE0F11
:1007E000FF1FBB1F661F771F881F91505040A9F73E
:1007F0009E3F510580F00C9454030C949F035F3F7F
:10080000E4F3983ED4F3869577956795B795F79579
:10081000E7959F5FC1F7FE2B880F911D96958795F1
:1008200097F90895BB274A3031F4992322F4BDE2A9
:10083000909581959F4F0C941E04BB27FB01552773
:10084000AA27880F991FAA1FA41710F0A41B83952D
:100850005051B9F7A05DAA3308F0A95DA1930097A4
:1008600079F7B111B1931192CB010C943704DC01EB
:10087000FC01672F71917723E1F7329704C07C91D7
:100880006D9370836291AE17BF07C8F30895F89413
:02089000FFCF98
:100892001F1F1F1F1F1F1F02060E1E0E0602080C1F
:1008A2000E0F0E0C08202020202057656C636F6D00
:1008B200652020202000426C61636B203A00486969
:1008C20067682020004C6F77004F74686572203A89
:1008D200200046616E205370656564203A004869C5
:1008E2006768004C6F7720004272757368205370FE
:1008F200656564203A0053697A653A00436F6C6F0C
:10090200723A00426C61636B004F74686572004E0C
:100912006F74005570646174650053756363657329
:100922007366756C6C79004572726F722100206378
:020932006D0056
:00000001FF
