S00A000069722E737265633F
S11300000C942A000C9434000C9434000C943400A6
S11300100C9434000C9434000C9434000C9434008C
S11300200C9434000C9434000C9434000C9434007C
S11300300C9434000C9434000C9434000C9434006C
S11300400C9434000C9434000C9434000C9434005C
S11300500C94340011241FBECFE5D8E0DEBFCDBF21
S11300600E9436000C944F000C94000088B38E7FDD
S113007088BBB09B0AC088B3816088BB83EC99E0DD
S11300800197F1F700C00000F4CF88B3817088BBFA
S113009083EC99E00197F1F700C00000EACFF894EF
S10500A0FFCF8C
S9030000FC
