:100000000C942A000C9434000C9434000C943400AA
:100010000C9434000C9434000C9434000C94340090
:100020000C9434000C9434000C9434000C94340080
:100030000C9434000C9434000C9434000C94340070
:100040000C9434000C9434000C9434000C94340060
:100050000C94340011241FBECFE5D8E0DEBFCDBF25
:100060000E9436000C946D000C9400008AB38160ED
:100070008ABB84B3826084BB8BB381608BBB2FEF60
:1000800087EA91E6215080409040E1F700C00000EF
:100090008BB381608BBB2FEF83E294EF21508040C4
:1000A0009040E1F700C000008BB381608BBB2FEF65
:1000B00087EA91E6215080409040E1F700C00000BF
:1000C0008BB381608BBB2FEF83E294EF2150804094
:0E00D0009040E1F700C00000CFCFF894FFCFC2
:00000001FF
