:100000000C942A000C9434000C9434000C943400AA
:100010000C9434000C9434000C9434000C94340090
:100020000C9434000C9434000C9434000C94340080
:100030000C9434000C9434000C9434000C94340070
:100040000C9434000C9434000C9434000C94340060
:100050000C94340011241FBECFE5D8E0DEBFCDBF25
:100060000E9436000C949A000C94000081B3806FBB
:1000700081BB82B3806182BB2FEB87E299E0215084
:1000800080409040E1F700C0000082B38F7E82BBC9
:100090002FEB87E299E0215080409040E1F700C0CB
:1000A000000082B3806482BB2FEB87E299E021508D
:1000B00080409040E1F700C0000082B38F7B82BB9C
:1000C0002FEB87E299E0215080409040E1F700C09B
:1000D000000082B3806282BB2FEB87E299E021505F
:1000E00080409040E1F700C0000082B38F7D82BB6A
:1000F0002FEB87E299E0215080409040E1F700C06B
:10010000000082B3806882BB2FEB87E299E0215028
:1001100080409040E1F700C0000082B38F7782BB3F
:100120002FEB87E299E0215080409040E1F700C03A
:0801300000009FCFF894FFCFFF
:00000001FF
